:100000000C9446000C9465000C9465000C946500FB
:100010000C9465000C9465000C9465000C946500CC
:100020000C9465000C9465000C9465000C946500BC
:100030000C9465000C948E010C9465000C94650082
:100040000C9465000C9465000C9465000C9465009C
:100050000C9465000C9465000C9465000C9465008C
:100060000C9465000C9465000C9465000C9465007C
:100070000C9465000C9465000C9465000C9465006C
:100080000C9465000C9465000C94650011241FBE4F
:10009000CFEFD0E4DEBFCDBF11E0A0E0B1E0E8E0FB
:1000A000FAE000E00BBF02C007900D92A832B10742
:1000B000D9F721E0A8E2B1E001C01D92A236B20753
:1000C000E1F70E941E020C9402050C940000CF93ED
:1000D000DF9300D01F92CDB7DEB789837B836A831D
:1000E00089818A3031F48A819B81BC018DE00E9434
:1000F000670080EC90E0FC018081882F90E08072A6
:100100009927892BB1F386EC90E02981FC012083AB
:1001100080E090E00F900F900F90DF91CF910895C5
:10012000CF93DF93CDB7DEB781E890E02BE0FC0101
:10013000208388E890E02DE730E0FC0131832083C4
:100140008FE690E022E0FC01208384E890E0FC014F
:100150001182108280910E0190910F01A0911001E7
:10016000B09111018093290190932A01A0932B0152
:10017000B0932C018FE590E02FE530E0F90120816C
:100180002068FC0120830000DF91CF910895CF9378
:10019000DF93CDB7DEB781E890E0FC01108200006C
:1001A000DF91CF9108950F931F93CF93DF931F9209
:1001B000CDB7DEB71982A6C08981282F30E0C901EA
:1001C000880F991F820F931F880F991F880F991FFF
:1001D000885C9E4FFC01208131814281538189815D
:1001E000682F70E0CB01880F991F860F971F880F2B
:1001F000991F880F991F8C5C9E4FFC018081918113
:10020000A281B381281739074A075B0708F449C060
:100210008981082F10E08981282F30E0C901880FDB
:10022000991F820F931F880F991F880F991F845C55
:100230009E4FFC01408151818981282F30E0C90106
:10024000880F991F820F931F880F991F880F991F7E
:100250008E5C9E4FFC0180819181FA0109959C0181
:10026000C801880F991F800F911F880F991F880F51
:10027000991F8E5C9E4FFC01318320838981282F3A
:1002800030E0C901880F991F820F931F880F991FB3
:10029000880F991F885C9E4FFC0110821182128288
:1002A00013828981682F70E08981282F30E0C9018D
:1002B000880F991F820F931F880F991F880F991F0E
:1002C000885C9E4FFC0180819181A281B38122E0F4
:1002D00030E040E050E0280F391F4A1F5B1FCB0180
:1002E000880F991F860F971F880F991F880F991FD6
:1002F000885C9E4FFC012083318342835383898134
:100300008F5F898384E09981981708F455CF0000A6
:100310000F90DF91CF911F910F9108951F920F922F
:1003200000905F000F92112400905B000F922F93BA
:100330003F934F935F936F937F938F939F93AF936D
:10034000BF93EF93FF93CF93DF93CDB7DEB7809149
:10035000290190912A01A0912B01B0912C010197C4
:10036000A109B1098093290190932A01A0932B013F
:10037000B0932C018091290190912A01A0912B0129
:10038000B0912C01892B8A2B8B2B91F40E94D300E6
:1003900080910E0190910F01A0911001B091110177
:1003A0008093290190932A01A0932B01B0932C01F3
:1003B0000000DF91CF91FF91EF91BF91AF919F919D
:1003C0008F917F916F915F914F913F912F910F90FE
:1003D00000925B000F9000925F000F901F901895A5
:1003E000CF93DF9300D000D0CDB7DEB769837A8397
:1003F0008B839C8389819A81AB81BC8180930E0120
:1004000090930F01A0931001B093110180910E0100
:1004100090910F01A0911001B091110180932901D9
:1004200090932A01A0932B01B0932C0100000F9010
:100430000F900F900F90DF91CF910895CF93DF939E
:100440001F92CDB7DEB781E290E0FC01108282E21C
:1004500090E02FEFFC01208384E290E02FEFFC017D
:10046000208385E290E0FC01108210922D01198218
:100470008981282F30E0C901880F991F820F931FAF
:10048000880F991F880F991F8E5C9E4FFC01118267
:1004900010828981682F70E028EE33E040E050E060
:1004A000CB01880F991F860F971F880F991F880F00
:1004B000991F8C5C9E4FFC012083318342835383C0
:1004C0008981682F70E08981282F30E0C901880F69
:1004D000991F820F931F880F991F880F991F8C5C9B
:1004E0009E4FFC012081318142815381CB01880FD5
:1004F000991F860F971F880F991F880F991F885C77
:100500009E4FFC0120833183428353838981282FAE
:1005100030E0C901880F991F820F931F880F991F20
:10052000880F991F845C9E4F28ED33E0FC013183D6
:10053000208389818F5F89838981282F30E0C901D9
:10054000880F991F820F931F880F991F880F991F7B
:100550008E5C9E4FFC01118210828981682F70E0B1
:100560002CE231E040E050E0CB01880F991F860F6C
:10057000971F880F991F880F991F8C5C9E4FFC0155
:1005800020833183428353838981682F70E089817E
:10059000282F30E0C901880F991F820F931F880F01
:1005A000991F880F991F8C5C9E4FFC01208131811F
:1005B00042815381CB01880F991F860F971F880FA7
:1005C000991F880F991F885C9E4FFC0120833183FF
:1005D000428353838981282F30E0C901880F991FF6
:1005E000820F931F880F991F880F991F845C9E4F5D
:1005F00028E134E0FC013183208389818F5F898386
:100600008981282F30E0C901880F991F820F931F1D
:10061000880F991F880F991F8E5C9E4FFC011182D5
:1006200010828981682F70E022E030E040E050E0E5
:10063000CB01880F991F860F971F880F991F880F6E
:10064000991F8C5C9E4FFC0120833183428353832E
:100650008981682F70E08981282F30E0C901880FD7
:10066000991F820F931F880F991F880F991F8C5C09
:100670009E4FFC012081318142815381CB01880F43
:10068000991F860F971F880F991F880F991F885CE5
:100690009E4FFC0120833183428353838981282F1D
:1006A00030E0C901880F991F820F931F880F991F8F
:1006B000880F991F845C9E4F29E734E0FC01318349
:1006C000208389818F5F89838981282F30E0C90148
:1006D000880F991F820F931F880F991F880F991FEA
:1006E0008E5C9E4FFC01118210828981682F70E020
:1006F00022E030E040E050E0CB01880F991F860FE8
:10070000971F880F991F880F991F8C5C9E4FFC01C3
:1007100020833183428353838981682F70E08981EC
:10072000282F30E0C901880F991F820F931F880F6F
:10073000991F880F991F8C5C9E4FFC01208131818D
:1007400042815381CB01880F991F860F971F880F15
:10075000991F880F991F885C9E4FFC01208331836D
:10076000428353838981282F30E0C901880F991F64
:10077000820F931F880F991F880F991F845C9E4FCB
:100780002CEB34E0FC013183208382E090E0A0E098
:10079000B0E0BC01CD010E94F0010E94900080E217
:1007A00090E0FC0180818095847080932F01F7CFC9
:1007B000CF93DF9300D0CDB7DEB79A838983898149
:1007C0009A81009719F0019741F00CC01092300106
:1007D00081E090E09A83898307C081E090E09A836A
:1007E000898302C01A82198289819A81019709F04E
:1007F00018C09091300181E0992309F080E0809346
:10080000300180913001882331F080912D01886082
:1008100080932D0105C080912D01877F80932D014C
:10082000000089819A810F900F90DF91CF910895F8
:10083000CF93DF9300D0CDB7DEB79A8389838981C8
:100840009A818130910589F0823091051CF4892BC1
:1008500039F01AC08230910569F0039781F014C015
:1008600081E090E09A83898311C082E090E09A83CE
:1008700089830CC083E090E09A83898307C081E07C
:1008800090E09A83898302C01A82198289819A81B1
:100890008230910589F083309105C9F0019709F004
:1008A00021C080912D01887F80932D0180912D01A1
:1008B000816080932D0116C080912D01887F8093E7
:1008C0002D0180912D01826080932D010BC08091BC
:1008D0002D01887F80932D0180912D01846080936C
:1008E0002D01000089819A810F900F90DF91CF91A7
:1008F0000895CF93DF9300D0CDB7DEB79A83898375
:1009000089819A81009719F0019771F012C085E2F0
:1009100090E01092310120913101FC01208381E0AF
:1009200090E09A83898307C081E090E09A8389836D
:1009300002C01A82198289819A81019709F015C033
:1009400080912F01882351F085E290E030912D01B4
:1009500020912E01232BFC01208306C085E290E02C
:1009600020912D01FC012083000089819A810F9044
:100970000F90DF91CF910895CF93DF9300D0CDB743
:10098000DEB79A83898389819A818130910579F0D4
:100990008230910539F0892BC1F481E090E09A838F
:1009A000898316C081E090E09A83898311C0809189
:1009B0002F01882329F082E090E09A83898308C080
:1009C00081E090E09A83898303C01A821982000033
:1009D00089819A818130910551F08230910519F019
:1009E000892B41F008C080E180932E0104C0109251
:1009F0002E0101C0000089819A810F900F90DF9134
:080A0000CF910895F894FFCF97
:100A08000000000200000000670000000000010074
:100A180000000402000000E80300002C01000002AE
:080A28000000000200000000C4
:00000001FF
